:100000000C9434000C9449000C9449000C94490061
:100010000C9449000C9449000C9449000C9449003C
:100020000C9449000C9449000C9449000C9449002C
:100030000C9449000C9449000C9449000C9449001C
:100040000C9449000C9449000C9449000C9449000C
:100050000C9449000C9449000C9449000C944900FC
:100060000C9449000C94490011241FBECFEFD8E036
:10007000DEBFCDBF11E0A0E0B1E0E6E4F2E002C0F7
:1000800005900D92AA32B107D9F70E94F1000C94A5
:1000900021010C9400001092C50087E68093C400F3
:1000A000E1ECF0E0808188618083089534B181E0E3
:1000B00090E0BC010090040102C0660F771F0A9413
:1000C000E2F7AC010090000102C0440F551F0A94F2
:1000D000E2F7262F242B232B0090060102C0880F65
:1000E000991F0A94E2F7822B84B98CB580658CBD88
:1000F00008958091C00087FFFCCF8091C6000895CD
:100100009091C00095FFFCCF8093C6000895FC013C
:100110009F01281B390B2617370744F42091C00094
:1001200025FFFCCF21912093C600F2CF08958EBD0C
:100130000DB407FEFDCF8EB50895FC01108211822B
:1001400012820895CF92DF92EF92FF920F931F9346
:10015000CF93DF93CDB7DEB727970FB6F894DEBF06
:100160000FBECDBF8091080190910901A0910A01B5
:10017000B0910B0189839A83AB83BC838E010B5FA3
:100180001F4F6E0188E0C80ED11C78010C151D05AB
:1001900059F080E00E94970090ED980F9A30B0F7E8
:1001A000F80181938F01F2CF64E070E0CE010196F7
:1001B0000E94870063E070E0C7010E9487008AE028
:1001C0000E94800027960FB6F894DEBF0FBECDBF09
:1001D000DF91CF911F910F91FF90EF90DF90CF9023
:1001E0000895CF93DF93CDB7DEB76C970FB6F89431
:1001F000DEBF0FBECDBF0E944B000E9456008CE1B7
:10020000EDE0F1E0DE01119601900D928A95E1F7A3
:100210006CE170E0CE0101960E9487008AE00E94A6
:1002200080000E9479008133E1F70E94A2002FEF45
:1002300081EE94E0215080409040E1F700C0000042
:06024000E7CFF894FFCFA8
:10024600050004000300020049523A2000456E747E
:100256006572203120746F20546F67676C65204982
:0A026600522053656E736F720000A2
:00000001FF
